:100000000C942A000C943F000C943F000C943F0089
:100010000C943F000C943F000C943F000C943F0064
:100020000C943F000C943F000C943F000C943F0054
:100030000C943F000C943F000C943F000C943F0044
:100040000C943F000C943F000C943F000C943F0034
:100050000C943F0011241FBECFE5D8E0DEBFCDBF1A
:1000600010E0A0E6B0E0ECE4F9E002C005900D92EB
:10007000AE36B107D9F70E947E040C94A4040C9408
:100080000000DF93CF93CDB7DEB727970FB6F89474
:10009000DEBF0FBECDBF89836A834B838B818130E6
:1000A00009F06FC08981282F30E03F832E838E8135
:1000B0009F818130910549F12E813F8122303105A8
:1000C0002CF48E819F81009761F0D2C02E813F81F8
:1000D0002230310571F18E819F8183309105E9F1E4
:1000E000C7C0AAE3B0E0EAE3F0E08081482F8A814C
:1000F000282F30E081E090E0022E02C0880F991F87
:100100000A94E2F7842B8C93B3C0A7E3B0E0E7E353
:10011000F0E08081482F8A81282F30E081E090E054
:10012000022E02C0880F991F0A94E2F7842B8C9349
:100130009FC0A4E3B0E0E4E3F0E08081482F8A812F
:10014000282F30E081E090E0022E02C0880F991F36
:100150000A94E2F7842B8C938BC0A1E3B0E0E1E337
:10016000F0E08081482F8A81282F30E081E090E004
:10017000022E02C0880F991F0A94E2F7842B8C93F9
:1001800077C08B81882309F073C08981282F30E0E4
:100190003D832C838C819D818130910559F12C8187
:1001A0003D81223031052CF48C819D81009769F0CE
:1001B0005FC02C813D812230310589F18C819D8188
:1001C0008330910509F440C053C0AAE3B0E0EAE3EC
:1001D000F0E08081482F8A81282F30E081E090E094
:1001E000022E02C0880F991F0A94E2F7809584239B
:1001F0008C933EC0A7E3B0E0E7E3F0E08081482FB6
:100200008A81282F30E081E090E0022E02C0880F22
:10021000991F0A94E2F7809584238C9329C0A4E364
:10022000B0E0E4E3F0E08081482F8A81282F30E0BD
:1002300081E090E0022E02C0880F991F0A94E2F735
:10024000809584238C9314C0A1E3B0E0E1E3F0E057
:100250008081482F8A81282F30E081E090E0022EB3
:1002600002C0880F991F0A94E2F7809584238C932B
:1002700027960FB6F894DEBF0FBECDBFCF91DF91AA
:100280000895DF93CF93CDB7DEB727970FB6F894D5
:10029000DEBF0FBECDBF89836A834B838B818130E4
:1002A00009F06FC08981282F30E03F832E838E8133
:1002B0009F818130910549F12E813F8122303105A6
:1002C0002CF48E819F81009761F0D2C02E813F81F6
:1002D0002230310571F18E819F8183309105E9F1E2
:1002E000C7C0ABE3B0E0EBE3F0E08081482F8A8148
:1002F000282F30E081E090E0022E02C0880F991F85
:100300000A94E2F7842B8C93B3C0A8E3B0E0E8E34F
:10031000F0E08081482F8A81282F30E081E090E052
:10032000022E02C0880F991F0A94E2F7842B8C9347
:100330009FC0A5E3B0E0E5E3F0E08081482F8A812B
:10034000282F30E081E090E0022E02C0880F991F34
:100350000A94E2F7842B8C938BC0A2E3B0E0E2E333
:10036000F0E08081482F8A81282F30E081E090E002
:10037000022E02C0880F991F0A94E2F7842B8C93F7
:1003800077C08B81882309F073C08981282F30E0E2
:100390003D832C838C819D818130910559F12C8185
:1003A0003D81223031052CF48C819D81009769F0CC
:1003B0005FC02C813D812230310589F18C819D8186
:1003C0008330910509F440C053C0ABE3B0E0EBE3E8
:1003D000F0E08081482F8A81282F30E081E090E092
:1003E000022E02C0880F991F0A94E2F78095842399
:1003F0008C933EC0A8E3B0E0E8E3F0E08081482FB2
:100400008A81282F30E081E090E0022E02C0880F20
:10041000991F0A94E2F7809584238C9329C0A5E361
:10042000B0E0E5E3F0E08081482F8A81282F30E0BA
:1004300081E090E0022E02C0880F991F0A94E2F733
:10044000809584238C9314C0A2E3B0E0E2E3F0E053
:100450008081482F8A81282F30E081E090E0022EB1
:1004600002C0880F991F0A94E2F7809584238C9329
:1004700027960FB6F894DEBF0FBECDBFCF91DF91A8
:100480000895DF93CF9300D000D000D0CDB7DEB772
:1004900089836A838981282F30E03D832C834C81B6
:1004A0005D814130510549F18C819D8182309105FA
:1004B00034F42C813D812115310561F057C04C8108
:1004C0005D814230510561F18C819D8183309105C0
:1004D000D1F14CC0E9E3F0E08081282F30E08A813F
:1004E000882F90E0A90102C0559547958A95E2F7BB
:1004F000CA01582F51705B833AC0E6E3F0E0808177
:10050000282F30E08A81882F90E0A90102C05595FC
:1005100047958A95E2F7CA01582F51705B8327C02F
:10052000E3E3F0E08081282F30E08A81882F90E09B
:10053000A90102C0559547958A95E2F7CA01582F3F
:1005400051705B8314C0E0E3F0E08081282F30E03D
:100550008A81882F90E0A90102C0559547958A9518
:10056000E2F7CA01582F51705B8301C002C08B8132
:100570008E838E8126960FB6F894DEBF0FBECDBF58
:10058000CF91DF910895DF93CF9300D000D0CDB706
:10059000DEB789836A838981282F30E03C832B83EF
:1005A0008B819C8181309105D1F02B813C8122305F
:1005B00031052CF48B819C81009761F01EC02B814A
:1005C0003C812230310581F08B819C818330910503
:1005D00081F013C0EAE3F0E08A8180830EC0E7E394
:1005E000F0E08A81808309C0E4E3F0E08A818083BF
:1005F00004C0E1E3F0E08A8180830F900F900F90B8
:100600000F90CF91DF910895DF93CF9300D000D06A
:10061000CDB7DEB789836A838981282F30E03C8398
:100620002B838B819C8181309105D1F02B813C8182
:10063000223031052CF48B819C81009761F01EC023
:100640002B813C812230310581F08B819C8183306C
:10065000910581F013C0EBE3F0E08A8180830EC046
:10066000E8E3F0E08A81808309C0E5E3F0E08A8175
:10067000808304C0E2E3F0E08A8180830F900F90D2
:100680000F900F90CF91DF910895DF93CF9300D01B
:1006900000D0CDB7DEB789836A838981282F30E007
:1006A0003C832B838B819C818130910549F12B8187
:1006B0003C81223031052CF48B819C81009761F0C4
:1006C0005AC02B813C812230310571F18B819C8194
:1006D00083309105E9F14FC0ABE3B0E0EBE3F0E02C
:1006E0008081482F8A81282F30E081E090E0022E1F
:1006F00002C0880F991F0A94E2F784278C933BC0AD
:10070000A8E3B0E0E8E3F0E08081482F8A81282F59
:1007100030E081E090E0022E02C0880F991F0A9419
:10072000E2F784278C9327C0A5E3B0E0E5E3F0E08F
:100730008081482F8A81282F30E081E090E0022ECE
:1007400002C0880F991F0A94E2F784278C9313C084
:10075000A2E3B0E0E2E3F0E08081482F8A81282F15
:1007600030E081E090E0022E02C0880F991F0A94C9
:10077000E2F784278C930F900F900F900F90CF91FA
:10078000DF910895DF93CF9300D0CDB7DEB79A8382
:10079000898305C089819A8101979A838983898198
:1007A0009A810097B9F70F900F90CF91DF9108953C
:1007B000DF93CF9300D0CDB7DEB79A83898309C08A
:1007C00088EE93E00E94C20389819A8101979A83FF
:1007D000898389819A81009799F70F900F90CF9123
:1007E000DF910895DF93CF9300D0CDB7DEB79A8322
:1007F000898309C088EE93E00E94D80389819A8199
:1008000001979A83898389819A81009799F70F903C
:100810000F90CF91DF910895DF93CF930F92CDB7D3
:10082000DEB7898382E06FEF0E94C3028981882F3F
:1008300090E0FC01E05AFF4F908182E0692F0E9416
:1008400004030F90CF91DF910895DF93CF930F9220
:10085000CDB7DEB7898383E06FEF0E94C302898141
:10086000882F90E0FC01EE59FF4F908183E0692FC3
:100870000E9404030F90CF91DF910895DF93CF93EF
:100880000F92CDB7DEB7898380E0698141E00E9495
:10089000410080E0698141E00E9441010F90CF91C9
:1008A000DF910895DF93CF9300D0CDB7DEB78A8371
:1008B0008A8189831BC089818A3058F080E00E9438
:1008C0000C0489810E94250482E390E00E94D803F1
:1008D0000AC081E00E940C0489810E94250482E301
:1008E00090E00E94D803898181508983898188237F
:1008F00011F70F900F90CF91DF910895DF93CF9371
:10090000CDB7DEB780E00E943E048AE00E94520428
:1009100080E060E040E00E94410181E00E943E04EE
:1009200083E00E94520480E061E040E00E944101C7
:1009300082E00E943E048AE00E94520480E062E06D
:0C09400040E00E944101DECFF894FFCFA0
:0E094C00063F3F065B4F666D7D077F6F3F00E5
:00000001FF
